:020000040800F2
:100000003837012001030008F1150008A715000882
:10001000ED150008C7140008531B0008000000007D
:100020000000000000000000000000004102000885
:10003000CB140008000000009D020008BD18000855
:100040001B0300081B0300081B0300081B03000818
:100050001B0300081B0300081B0300081B03000808
:100060001B0300081B0300081B0300081B030008F8
:100070001B0300081B0300081B0300081B030008E8
:100080001B0300081B0300081B0300081B030008D8
:100090001B0300081B0300081B0300081B030008C8
:1000A0001B0300081B0300081B0300081B030008B8
:1000B0001B0300081B0300081B0300081B030008A8
:1000C0001B0300081B0300081B0300081B03000898
:1000D0001B030008351900081B0300081B03000858
:1000E0001B0300081B0300081B0300081B03000878
:1000F0001B0300081B0300081B0300081B03000868
:100100001B0300081B0300081B0300081B03000857
:100110001B0300081B0300081B0300081B03000847
:100120001B0300081B0300081B0300081B03000837
:100130001B0300081B0300081B0300081B03000827
:100140001B0300081B0300081B0300081B03000817
:100150001B0300081B0300081B0300081B03000807
:100160001B0300081B0300081B0300081B030008F7
:100170001B0300081B0300081B0300081B030008E7
:100180001B0300081B03000800F002F800F049F808
:100190000AA090E8000C82448344AAF10107DA45E2
:1001A00001D100F03EF8AFF2090EBAE80F0013F0EB
:1001B000010F18BFFB1A43F001031847903B0000E2
:1001C000B03B0000103A24BF78C878C1FAD8520773
:1001D00024BF30C830C144BF04680C6070470000C1
:1001E0000023002400250026103A28BF78C1FBD840
:1001F000520728BF30C148BF0B607047662903F023
:100200005985002070471FB503F04FFD00F0F2FB49
:1002100004000020002103F0BBFCE0601FBD10B50E
:1002200010BD00F027FD1146FFF7EDFF01F032FD94
:1002300000F045FD03B4FFF7F2FF03BC01F0AAFC98
:100240002C4B19680868B0E8F04F80F30988BFF3B9
:100250006F8F4FF0000080F311887047000000009E
:1002600008480068006880F308884FF0000080F3B9
:10027000148862B661B6BFF34F8FBFF36F8F00DF94
:1002800000BF00BF08ED00E0DFF80C00016841F49A
:1002900070010160704700BF88ED00E0EFF3098056
:1002A000BFF36F8F134B1A681EF0100F08BF20EDBD
:1002B000108A20E9F04F106009B44FF0500080F32D
:1002C0001188BFF34F8FBFF36F8F02F001FE4FF025
:1002D000000080F3118809BC19680868B0E8F04F85
:1002E0001EF0100F08BFB0EC108A80F30988BFF32E
:1002F0006F8F704744000020EFF3058070470000C7
:100300000948804709480047FEE7FEE7FEE7FEE7A9
:10031000FEE7FEE7FEE7FEE7FEE7FEE704480549E5
:10032000054A064B70470000CD18000889010008F7
:10033000383101203837012038330120383301208B
:10034000704700000FB4044910B503AA029800F0EA
:10035000EBFA10BC5DF814FB2C0000202DE9F047EF
:100360004FF0000A89460446C0F820A02046E16804
:100370008847002876D0252806D0D4E90121904767
:10038000206A401C2062F1E7E1682046002588478A
:10039000C4F81CA006460027C4F818A02A2E09D0CD
:1003A000304601F0F0FB38B304EB8708303EC8F864
:1003B000186019E059F8041B204604EB870291618C
:1003C000E1688847012F064618D1E069002820DA45
:1003D00025F020051DE0D8F8180000EB800006EBA2
:1003E00040003038C8F818002046E16888470646C3
:1003F00001F0C9FB0028EED1012F0AD02E2E08D122
:100400002046E16888477F1C0646022F45F02005FC
:10041000C4DBA069002803DA404245F00105A06171
:10042000E80701D025F01005B6B1A6F14100192862
:1004300002D8203645F400654A46314620462560FC
:100440004D46FFF7DBFE58B1012806D0ED1D25F023
:10045000070000F1080989E704E005F1040985E7D0
:1004600030468AE7206ABDE8F087032A40F23080F0
:1004700010F0030C00F0158011F8013BBCF1020FE5
:10048000624498BF11F801CB00F8013B38BF11F866
:10049000013BA2F1040298BF00F801CB38BF00F87D
:1004A000013B11F0030300F05182083AC0F00880CC
:1004B00051F8043B083A51F804CBA0E80810F5E7DE
:1004C000121D5CBF51F8043B40F8043BAFF30080C1
:1004D000D20724BF11F8013B11F801CB48BF11F836
:1004E000012B24BF00F8013B00F801CB48BF00F806
:1004F000012B704702F0FF0343EA032242EA024263
:1005000000F058BA704770477047704770472DE940
:10051000FF4F0C461E464FF0FF378BB0D2E900016B
:10052000DDF860800A908A46C1F30A5505B93D4658
:10053000002108464FF00000BAF1000F00F440001F
:1005400005DA00EB80004FF4400101EA50004FEA69
:100550009059B9F1010F00DDB9460A9850EA4A00F6
:100560000ED044F61050A5F2FF3545432F14B8F1D4
:10057000000F1ED07542291E1EDDC9F100021CE0CD
:10058000B8F1010F4FF0000001D0302103E0F24339
:1005900005E02154401CB042FBDB30460022002124
:1005A00021540B99C1F80880C1E900200FB0BDE8C3
:1005B000F08FBD1B6D1CDEE74A4600DA694206A8D3
:1005C00000F0BAFA06AB93E8070003AB83E8070034
:1005D00050460A9900F0BCFB8DE80700A0F50050DA
:1005E0001F3800900398002D09DD42F21F014A4692
:1005F000084403A90390684600F01BFE08E0A0F53C
:1006000000504A461F3803A90390684600F025FEB3
:100610008DE807000004000C03D04FF0FF304108C4
:1006200000E01046B8F1000F03D0002200921546FA
:100630001EE0751E05D400F0E1F9303262556D1EE2
:10064000F9D5B3460122084302D000227F1C04E002
:100650002078302801D100227F1E002A099786D0F9
:100660001DE0112D07DA00F0C9F9303262556D1C1A
:1006700050EA0102F5D1084302D00098C8B10EE05B
:100680000021681E05E0235C625C63542254401E16
:10069000491C8142F7DBAB46A81B401E0990002095
:1006A00004F80B000B98099AC0F80880C0E9002BE9
:1006B0007CE711264FF0000859E72DE9F04F8846F6
:1006C0000446D21D22F0070191B0D1E90001CDE925
:1006D0000A0101F040FA02460B98C00F01D02D200C
:1006E00007E02068810701D52B2002E0202101EAE4
:1006F000C000032A099001D0072A05DB03464146C2
:10070000204600F0D9F90BE12078800601D5E06998
:1007100000E00620B8F1650F814606D0B8F1660FFB
:1007200018D0B8F1670F70D131E00020B9F1110F86
:10073000009001DB112301E009F101030AAA01A9DC
:100740000CA8FFF7E4FEDDE90C70002609F10105B5
:10075000834647E001204B4600904FF000470AAA2D
:1007600001A90CA8FFF7D3FEDDE90DB00C995D4699
:10077000002610B909F101000D18B9EB050003D4EA
:10078000C0F1FF3609F10105A5EB09002BE0B9F135
:10079000010F01DA4FF001090020B9F1110F0090AB
:1007A000484601DD112300E003460AAA01A90CA86E
:1007B000FFF7ADFEDDE90C704D460026834620783C
:1007C00000070AD4AB4500DA5D4601A8012D04DD1F
:1007D000411911F8011C302907D04F4502DA17F1F1
:1007E000040F04DA012082460FE06D1EEEE7002FB1
:1007F00002DCED1B3E4403E0781CA84200DD7D1CBA
:10080000B81B00F1010A4FF000472078000703D41D
:10081000AA4501DB4FF0FF3A0021B7F1004F0DF17F
:1008200043088DF8431024D002202B23002F01DA37
:100830007F422D230A21021EA0F1010000DC5FB1DE
:1008400097FBF1FC97FBF1F201FB1C7C17460CF1C6
:10085000300C08F801CDEEE7A8F101000370218803
:10086000090501D5452100E06521A0F1010800F846
:10087000011C09980FA9A1EB0807FF1D00B1012079
:10088000411901EBEA70A1693844081A401EA061C1
:100890002078C00602D42046AFF30080099828B122
:1008A000D4E901219047206A401C20622078C006CC
:1008B00022D52046AFF300801EE0002E04DBB345B6
:1008C00002DD01A8805D00E03020D4E901219047DD
:1008D000206A401C2062761CAAF101005FEA000A2F
:1008E0000AD100F087F8C0680168405CD4E90121B2
:1008F0009047206A401C2062281EA5F10105DCDC1F
:1009000007E0D4E9012118F8010B9047206A401C48
:100910002062381EA7F10107F3DC2046AFF3008008
:10092000032011B043E60000074B70B50D467B4431
:1009300000F0AFF80446284600F06CF910B14FF013
:10094000FF3070BD204670BDFF12000010B5203A88
:10095000C0F00B80B1E81850203AA0E81850B1E878
:100960001850A0E81850BFF4F5AF5FEA027C24BF2E
:10097000B1E81850A0E8185044BF18C918C0BDE825
:1009800010405FEA827C24BF51F8043B40F8043BEE
:1009900008BF7047D20728BF31F8023B48BF11F8A3
:1009A000012B28BF20F8023B48BF00F8012B7047FD
:1009B0004FF000020429C0F0128010F0030C00F088
:1009C0002F81CCF1040CBCF1020F18BF00F8012BF1
:1009D000A8BF20F8022BA1EB0C0100F021B95FEABF
:1009E000C17C24BF00F8012B00F8012B48BF00F8A0
:1009F000012B704700487047F430012030B5B0F14A
:100A00000A024FEA900E71F100034EEA817EB0EBCC
:100A10000E0061EB91014FEA101E4EEA017E10EBD1
:100A20000E0041EB11114FEA102E4EEA016E10EB51
:100A30000E0041EB11214FEA104E4EEA014E10EB31
:100A40000E0041EB1141401841F100014FEAD00086
:100A500040EA41704FEAD10110EB80054FEA810472
:100A600044EA907444EB01046D1944EB0404521BF6
:100A7000A3414FF0000348BF0A3200D530BD401CEF
:100A800041F1000130BD000001694A1C0261087893
:100A9000704700B58FB0CDE90131002105910549BE
:100AA0007944CDE9031011466846FFF757FC0FB0B3
:100AB00000BD0000E5FFFFFF2DE9F0411F460446A1
:100AC00003260168072A01F4006004DB08B116A5BB
:100AD00005E016A503E008B115A500E015A521F075
:100AE00010002060A069C01EA0610FB1401EA0616F
:100AF0002046AFF300804FB1D4E90121384690473A
:100B0000206A401C2062C01C206206E0206AFAE7CE
:100B1000D4E9012115F8010B9047761EF8D2204642
:100B2000AFF30080BDE8F0814E414E006E616E0073
:100B3000494E4600696E66002DE9F047814616462B
:100B40008AB0334878440DC88DE80D0030487844A9
:100B5000801C03AC0DC884E80D0041F69B300844AE
:100B6000372190FBF1F290FBF1F5A5F1800501FB37
:100B700012041B3C02D56442012000E00020DFF893
:100B800090A080460027FA44AAF1BE0A0DE0E007D3
:100B900009D03246684607EB47010AEB810100F0B5
:100BA0005CFB8DE8070064107F1C002CEFD1184F10
:100BB0007F44AC3F18E0E80714D007EB04100DF1B8
:100BC000180A90E80E008AE80E00C068F04201D1D1
:100BD00098190890324606A903A800F03EFB03AB23
:100BE00083E807006D10641C002DE4D1324669468D
:100BF000B8F1000F03A802D000F01BFB01E000F0E9
:100C00002CFBC9E90001C9F808200AB0BDE8F0874B
:100C1000EC310000007B00F0800070474FF00002D4
:100C200000B5134694469646203922BFA0E80C50E2
:100C3000A0E80C50B1F12001BFF4F7AF090728BFBD
:100C4000A0E80C5048BF0CC05DF804EB890028BF39
:100C500040F8042B08BF704748BF20F8022B11F062
:100C6000804F18BF00F8012B704700000048704704
:100C7000D43001207546FFF7F9FFAE4605006946FE
:100C8000534620F00700854618B020B5FFF746FB15
:100C9000BDE820404FF000064FF000074FF000087D
:100CA0004FF0000B21F00701AC46ACE8C009ACE8FE
:100CB000C009ACE8C009ACE8C0098D46704710B562
:100CC0000446AFF300802046BDE81040FFF7B2BAFB
:100CD0004FF0013C50F8042B51F8043B9A4221D1CB
:100CE000A2EB0C03934313EACC1317D150F8042B57
:100CF00051F8043B9A4215D1A2EB0C03934313EA3B
:100D0000CC130BD150F8042B51F8043B9A4209D173
:100D1000A2EB0C03934313EACC13DBD04FF000009B
:100D2000704700BFD01A01BAB1FA81F101F0180181
:100D300022FA01F0CB40C1F12001DBB2C0B2C01AEF
:100D40002CFA01F3D11A914311EAC311E6D170478D
:100D50005FEA400C08BF91F0000F4FEA8C234FEA86
:100D6000C12243EA51514FEA1C5018BF00F5F04030
:100D70004FEA300018BF41F000415FEA6C5C00F0C0
:100D80002980BCF1FF3F08BF40F080407047130C42
:100D900006BF12044FF0100C4FF0000C130E04BFEE
:100DA00012020CF1080C130F04BF12010CF1040C19
:100DB000930F04BF92000CF1020CD30F04BF52003A
:100DC0000CF1010C11464FF00002A0F11F00A0EB46
:100DD0000C00704711F0004F08BF704731F0004120
:100DE0003FF4D5AF0B0C06BF09044FF0100C4FF0C9
:100DF000000C0B0E04BF09020CF1080C0B0F04BF12
:100E000009010CF1040C8B0F04BF89000CF1020CDA
:100E1000CB0F04BF49000CF1010CCCF12003A0EB77
:100E20000C0022FA03F302FA0CF241EA030100F18A
:100E30000100704720F07F4C80EA030023F07F47D9
:100E4000ACEB070303F57C5300F0004003F1FF0314
:100E50002DE980494FEA154B09B44FEA144325EABE
:100E60000B4E24EA03480FF2042606EB1327490829
:100E70003E785FEA320203FB0667C7F5000707FB0F
:100E800006F64FEA54374FEAD64606F1020607FB4C
:100E9000066CCCF1005C4FEA1C472CEA074C07FBC0
:100EA00006F40CFB06F504EB15464FEA961634BF24
:100EB00000204FF000404FEAD13706FB07FC4FEA15
:100EC0001C4C0CFB0BF7D21B03FB0CF761EB07016F
:100ED0000CFB0EF7B0EB074072EB17420CFB08F768
:100EE00034BFA2EB0742B2EB074261EB17414FEA76
:100EF0000C444FEA910706FB07FC4FEA1C4C0CFB25
:100F00000BF7B0EBC74072EB573203FB0CF734BF63
:100F1000A2EBC742B2EBC74261EB57310CFB0EF7B5
:100F2000B0EBC70072EB57720CFB08F734BFA2EBB3
:100F3000C702B2EBC70261EB5771039F4FEA8161B1
:100F400041EA921104EBCC044FEAD1374FEA8262B6
:100F500006FB07FC42EA90124FEA80604FEA1C4C05
:100F60000CFB0BF7D21B03FB0CF761EB07010CFB2F
:100F70000EF7B0EB074072EB17420CFB08F734BFDB
:100F8000A2EB0742B2EB074261EB17414FEA8C55E7
:100F90004FEA910704EB9C2406FB07FC4FEA1C4C2C
:100FA0000CFB0BF7B0EBC74072EB573203FB0CF7AF
:100FB00034BFA2EBC742B2EBC74261EB57310CFB27
:100FC0000EF7B0EBC70072EB57720CFB08F734BF9B
:100FD000A2EBC702B2EBC70261EB577115EB4C25D0
:100FE0004FEA816141EA92114FEA82624FEAD137BA
:100FF00042EA901206FB07FC44F100044FEA8060CD
:101000004FEA1C4C0CFB0BF7D21B03FB0CF761EBFC
:1010100007010CFB0EF7B0EB074072EB17420CFB1D
:1010200008F734BFA2EB0742B2EB074261EB17416E
:1010300015EB1C154FEA813141EA92414FEA8232A9
:1010400042EA90424FEA80304FEA0C7644F10004C5
:1010500048EA03434EEA0B484FF0000EB2EB080C8F
:1010600071EB030724BF624639464EEB0E0E4FF07C
:10107000000B0018524149414BEB0B0BB2EB080C33
:1010800071EB03077BF1000B24BF624639464EEB40
:101090000E0E4FF0000B0018524149414BEB0B0B69
:1010A000B2EB080C71EB03077BF1000B24BF624627
:1010B00039464EEB0E0E51EA020718BF46F0010604
:1010C00016EB0E7655F1000254F1000103D5BDE890
:1010D0008901BDE80088BDE88901BDE80048B6196E
:1010E000524141EB0101A3F10103704780807F7EF3
:1010F0007D7C7B7A7978777676757473727171708E
:101100006F6E6E6D6C6C6B6A6A696868676666653F
:101110006464636362616160605F5F5E5E5D5D5CCD
:101120005C5B5B5A5A59595858575756565555553E
:101130005454535352525251515050504F4F4F4E9E
:101140004E4D4D4D4C4C4C4B4B4B4A4A4A494949EC
:10115000484848474747474646464545454444442E
:10116000444343434342424242414141002B26D43F
:10117000770021D01CB54FEA370703B44FF01000B9
:101180004FF010014FF000000FBCBDE810400BF114
:10119000010BBBF1010F08BF5FEA170722BF12F175
:1011A000010211F101014FF0004143F1000300F091
:1011B000004043EA00007047F9D35708DAE746EAEF
:1011C000064613F1400F4FEA16461FDD13F1200FBC
:1011D000DFBF16430A46002120335B42C8D0C3F16B
:1011E000200746EA064602FA07F74FEA164646EA9D
:1011F0000706C3F1200722FA03F201FA07F721FAE2
:1012000003F14FF0000342EA0702B1E746EA0206A3
:1012100046EA06464FEA164646EA0106BCBF46EADB
:101220000646360C4FF000034FF000024FF000016D
:101230009EE72DE9C048934630B491E8380007C8CE
:1012400031EA400C48BF34EA430C03D5FFF7F2FD06
:10125000FFF78CFFF0BCBDE800882DE9C04893463D
:1012600030B491E8380007C810F0804F08BF13F081
:10127000804F03D100F005F8FFF778FFF0BCBDE820
:10128000008820F07F4780EA030023F07F4C07EBC3
:101290000C03A3F57C5300F00040A3F1FE0392F091
:1012A000000F00F0B38095F0000F00F077802DE97B
:1012B00001494FEA11404FEA144621EA004800FB79
:1012C00006FC24EA064708FB06F607FB08F800FBC5
:1012D00007F718EB06484CEB164C4FEA124B18EB8D
:1012E00007484FEA15464CEB174022EA0B4E0BFB22
:1012F00006FC25EA06470EFB06F607FB0EFE0BFB77
:1013000007F71EEB064E4CEB164C4FF000061EEB9B
:10131000074E4CEB174B18EB0B0840F1000018EB95
:101320000E0B58EB000840F100008F1A4FF000013F
:101330003CBFC943661B14BFB5EB040C00213CBF86
:10134000C943F61B4FEA17444EEA8E0E27EA0445BE
:101350004FEA1C4704FB07622CEA074C05FB07F722
:101360000CFB05F604FB0CFC16EB074642EB1742A0
:1013700016EB0C4642EB1C421BEB060658EB020236
:10138000414146EA9E0601D5BDE80189B6195241A0
:1013900041EB0101A3F10103BDE801894FEA1445C6
:1013A0004FEA114724EA054621EA074C05FB07F4FA
:1013B00006FB07F70CFB06F105FB0CFC11EB0741E4
:1013C00044EB17444FEA124711EB0C4144EB1C4429
:1013D00022EA074C05FB07F206FB07F70CFB06F6B3
:1013E00005FB0CFC16EB074642EB174216EB0C46CE
:1013F00042EB1C456A1854F1000148BF7047B6190A
:10140000524141EB0101A3F10103704795F0000F38
:1014100037D04FEA11424FEA144721EA024624EA44
:10142000074C02FB07F106FB07F70CFB06F402FB77
:101430000CFC14EB074441EB17414FEA154714EB42
:101440000C4441EB1C4125EA074C02FB07F506FB67
:1014500007F70CFB06F602FB0CFC16EB074645EB08
:10146000174516EB0C4645EB1C42121951F10001D1
:1014700048BF7047B619524141EB0101A3F1010386
:1014800070474FEA14454FEA114724EA054621EA1E
:10149000074C05FB07F106FB07F70CFB06F24FF0C4
:1014A000000605FB0CFC12EB074241EB174112EB67
:1014B0000C4251EB1C4148BF7047921841EB0101AF
:1014C000A3F10103704700BFFEE77047F0B50A467D
:1014D00000210023002400BF3DE0012505FA01F3AF
:1014E000156805EA03049C4234D105684F000326C1
:1014F000BE40B543056015794E00B54006683543DA
:1015000005601579012D02D01579022D16D1856857
:101510004F000326BE40B543856055794E00B54067
:10152000866835438560456801268E40B543456031
:10153000456896798E40B6B235434560C5684F0020
:101540000326BE40B543C560D5794E00B540C66898
:101550003543C560491C1029BFD3F0BDF0B5002349
:1015600000244D07ED0E02FA05F3CE1000F1200520
:1015700055F826504E07F70E0F26BE40B543CF1044
:1015800000F1200646F82750CE1000F1200555F84E
:10159000265045EA0304CE1000F1200545F8264008
:1015A000F0BD0183704700BFFEE700001CB50121BC
:1015B000202000F065F84FF4C060009001208DF805
:1015C000040000208DF8060003208DF8050001209E
:1015D0008DF8070069460448FFF778FF4FF4C061B3
:1015E0000148FFF7DEFF1CBD0014024000BFFEE70C
:1015F0007047000070B5002100230F22C4781CB38F
:10160000174C246804F4E064C4F5E064C4F30721D3
:10161000C1F10404E3B20A4144789C40E1B2847809
:10162000144021430C07210E0E4C057861550478B7
:1016300004F01F050124AC4005786D11AD0005F1E3
:10164000E025C5F8004109E0047804F01F050124F5
:10165000AC40054D0678761145F8264070BD000077
:101660000CED00E000E400E080E100E0024901430D
:10167000024A1160704700000000FA050CED00E01E
:1016800029B1064A12680243044B1A6004E0034A77
:1016900012688243014B1A607047000030380240E4
:1016A00029B1064A12680243044B1A6004E0034A57
:1016B00012688243014B1A607047000044380240B0
:1016C000F0B5002100220024022500260223324F1B
:1016D0003F6807F00C0121B1042905D0082937D152
:1016E00005E02E4F076036E02D4F076033E02A4FAC
:1016F0003F1F3F68C7F38056274F3F1F3F6807F0E3
:101700003F036EB1264FB7FBF3F7DFF88CC0ACF1A7
:10171000040CDCF800C0CCF3881C07FB0CF40CE0D4
:101720001E4FB7FBF3F7DFF870C0ACF1040CDCF828
:1017300000C0CCF3881C07FB0CF4174F3F1F3F6819
:10174000C7F301477F1C7D00B4FBF5F7076002E09B
:10175000124F076000BF00BF0F4F3F6807F0F00156
:101760000909104F7A5C0768D74047600A4F3F6805
:1017700007F4E051890A0B4F7A5C4768D7408760CD
:10178000054F3F6807F46041490B064F7A5C476894
:10179000D740C760F0BD0000083802400024F400C4
:1017A00000127A00320000200CB500200190009059
:1017B0003448006840F480303249086000BF314846
:1017C000006800F4003000900198401C01900098DF
:1017D00018B90198B0F5A04FF1D12A48006800F47B
:1017E000003010B10120009001E00020009000982E
:1017F000012846D123484030006840F080502149FC
:10180000403108602048006840F440401E490860AC
:101810001C48083000681B49083108600846006809
:1018200040F4004008600846006840F4A05008609A
:101830001648091F0860081F006840F08070091FE3
:10184000086000BF0F48006800F000700028F9D061
:1018500040F205700E4908600A480830006820F020
:1018600003000849083108600846006840F002009B
:10187000086000BF03480830006800F00C0008282A
:10188000F8D10CBD003802400070004008544007F9
:10189000003C0240042808D14FF0E021096941F0E2
:1018A00004014FF0E022116107E04FF0E0210969E7
:1018B00021F004014FF0E0221161704710B501F0F2
:1018C0000DFF012801D001F0FDFB10BD10B515483A
:1018D000006840F47000134908601348006840F045
:1018E00001001149086000200F49083108600E48C6
:1018F00000680E4908400C4908600D48091D086041
:10190000081F006820F48020091F08600020064995
:101910000C310860FFF748FF4FF000600149803943
:10192000086010BD88ED00E000380240FFFFF6FEC1
:101930001030002410B540F225511D4800F04AF83F
:1019400010B31B4800F000F9C4B21A48008800F434
:101950000040C8B91748008800F4804060B10A2CE4
:1019600003D000201349088020E01248008840F48A
:1019700000401049088019E00D2C06D10D48008860
:1019800040F480400B49088010E00A480088C0F30A
:101990000D0009490C5407480088401C054908807F
:1019A00008460088C72801DD0020088010BD00001F
:1019B0000010014030000020C000002021B18289C9
:1019C00042F40052828104E082894DF6FF731A408E
:1019D0008281704770B50246002400230025002054
:1019E00040F66A16B14200D100BFC1F3421501F0C2
:1019F0001F03012606FA03F3012D02D19689334015
:101A000006E0022D02D1168A334001E0968A334067
:101A10000C12012606FA04F41688344013B10CB1F6
:101A2000012000E0002070BDF0B503460024002630
:101A30000025002040F66A17B94200D100BF1846C1
:101A4000C1F3421401F01F06012707FA06F5012C25
:101A500001D10C3004E0022C01D1103000E0143030
:101A60001AB107682F43076002E00768AF430760B9
:101A7000F0BD00002DE9FF4705460E460024A146B3
:101A800000BFA046B08900B100BF2C8A24F44054A6
:101A9000F08804432C82AC8941F20C608443B08806
:101AA00031890843718908430443AC81AC8A24F42A
:101AB0004074B0890443AC826846FFF701FE2048B9
:101AC000854202D01F48854202D1DDF80C9001E02A
:101AD000DDF80890A88900F4004040B109EBC90086
:101AE00000EB091031684900B0FBF1F707E009EBA2
:101AF000C90000EB091031688900B0FBF1F76420E0
:101B0000B7FBF0F004012009642101FB1078A889DB
:101B100000F4004040B1322000EBC800B0FBF1F00F
:101B200000F00700044308E0322000EB08106421B5
:101B3000B0FBF1F000F00F0004432C81BDE8FF87FB
:101B4000001001400014014001468888C0F30800DD
:101B5000704700BFFEE703B401984100009850EAC7
:101B6000C12018BF04204A0D18BF40F0010040F208
:101B7000FF72B2EB515F08BF40F00200012808BFBE
:101B8000052002B0704730380A2801D20120704782
:101B90000020704700BF704770B504460420FFF76F
:101BA00079FE0C48047025464FF47A7045430120B5
:101BB000094908804FF0E020006940F002004FF032
:101BC000E021086108464561006940F001000861B4
:101BD00070BD0000280000202A0000202DED028B9F
:101BE00016E00C4890ED000ADFED0B0A30EE200AFB
:101BF00080ED000A006801F0E7FF41EC180B53ECA0
:101C0000182B06A0FEF79EFB4FF47A7001F018F82F
:101C1000E7E70000100000200AD7233C666C6F61E4
:101C2000745F6E756D203D20252E34660D0A000010
:101C300000BF054A128802F04002002AF9D0C2B261
:101C4000014B9A80704700000010014009E00548F0
:101C50000068C0430449C1F8A4024FF4FA7000F0D0
:101C6000EFFFF4E7A4824242008042420DE00020F0
:101C700006490860C82000F0E3FF01200449C1F8CC
:101C8000A8024FF4487000F0DBFFF0E7A882424260
:101C9000008042421CB54FF44070FFF7E7FCA820DB
:101CA000FFF77AFF4FF4E13000F004FEFFF77EFC0F
:101CB0000648012100238022CDE9001004A1074835
:101CC00001F0DCFC01F0B2F800201CBD0000002097
:101CD00073746172745F7461736B00002128000873
:101CE0002DE9F04105460E461C4807681C4800686F
:101CF000001D00F035FE50B91948006890F82C100E
:101D00000120884017490968814316480160681C12
:101D100038B936B112480168091D134800F05EFE5B
:101D20001AE07C190E4800684460BC4207D20C4897
:101D30000168091D0D48006800F036FE0CE00848F7
:101D40000168091D0A48006800F02EFE0948006875
:101D5000844201D207480460BDE8F08158000020A9
:101D6000440000205C000020980400204C0000206B
:101D7000480000207400002010B5044600F03AFE30
:101D800024480068401C234908602348006840B983
:101D9000214804600846006801280DD100F0D6F9FA
:101DA0000AE01E48006838B91B480068C06AE16A4A
:101DB000884201D81848046019480068401C184936
:101DC000086008460068206494F82C1001208840C0
:101DD00014490968084313490860E16A01EB81016D
:101DE000114A02EB8100211D00F0F8FD00F02CFEED
:101DF0000A48006868B108480068C06AE16A884219
:101E000007D24FF0805009490860BFF34F8FBFF3EE
:101E10006F8F10BD5400002044000020600000209F
:101E2000700000205C000020C801002004ED00E0EC
:101E300010B500F0DFFD10480068D0B90F4800F081
:101E4000A3FD0F4800F0A0FD0C480E4908600C48A7
:101E50000D49086000220C210A2001F04DF90649C5
:101E600008600846006820B108A10348006800F037
:101E7000ABFE00F0E9FD10BD88000020AC0400209E
:101E8000C00400208000002084000020546D7251A6
:101E90000000000010B516E000F0ACFD0C48C06872
:101EA000C468201D00F05CFD0A480068401E094916
:101EB000086009480068401E0749086000F0C4FD3A
:101EC000204600F05FF8044800680028E4D110BD07
:101ED00084040020540000205000002070B5044607
:101EE0000D46206C70B1216CE0680144E160D4E9DA
:101EF0000210884201D32168E1602846226CE16823
:101F0000FEF7B3FA70BD2DE9F04104460F461546C1
:101F10004FF00008A66B206C48B9206800282CD12F
:101F2000A06801F095FC80460020A06025E07DB906
:101F30003946226C6068FEF798FA216C60680844A4
:101F40006060D4E90101884217D32068606014E022
:101F50003946226CE068FEF788FA216CE068411A85
:101F6000E1602168E068884203D2216CA068411AD0
:101F7000E160022D01D106B1761E701CA0634046BF
:101F8000BDE8F08110B50446206B00F07BFD2046D3
:101F900000F078FD10BD00000146084A1268126882
:101FA0000AB9012200E000220A600A6822B9034A45
:101FB0001268D268106800E000207047800000209E
:101FC00030B54FF49633174800F007042CB1C01D0C
:101FD00020F00700134C041B1B1B0246124C22600E
:101FE0000024114D6C60D018083820F007000F4C09
:101FF000206000240D4D2D686C600C4D2D682C6008
:102000001146441A4C60094C24680C60084D4C6819
:102010002C60084D4C682C604FF00044064D2C603D
:1020200030BD0000D4040020940000209C0000205B
:10203000A4000020A0000020B000002000BFFFF797
:1020400029FF064800680128F9D94FF0805004495B
:102050000860BFF34F8FBFF36F8FF0E7C801002018
:1020600004ED00E02DE9F04106460D46174698467E
:10207000069C0DB9246000E02760E6632564012119
:10208000204601F063F884F84C80BDE8F0812DE92A
:10209000F05F82460E4690469B460A9F0C9C4FEA94
:1020A0008801A522206BFEF725FAA8F10100216B1B
:1020B00001EB800929F0070909F0070008B90120A0
:1020C00000E0002050B900BF502080F31188BFF31A
:1020D0004F8FBFF36F8F00BF00BFFEE786B10025B3
:1020E00007E0715D04F134004155705D00B902E014
:1020F0006D1C0A2DF5D300BF00213D20015502E0E3
:10210000002084F83400202F00D31F27E762A76443
:102110000020E064201D00F044FC04F1180000F0F1
:1021200040FC2461C7F12000A061646200202065AA
:1021300084F854005A465146484600F05BFB206044
:102140000B9808B10B980460BDE8F09F10B500240F
:1021500007E004EB84010F4A02EB810000F014FC5D
:10216000641C202CF5D30C4800F00EFC0B4800F04A
:102170000BFC0B4800F008FC0A4800F005FC0A487C
:1021800000F002FC04480949086004480849086056
:1021900010BD0000C8010020480400205C0400209D
:1021A00070040020840400209804002048000020CF
:1021B0004C00002010B50146164800E00068036896
:1021C0008B42FBD30246436813448B4204D14368DD
:1021D0004C682344436001460A464B681344046834
:1021E000A34211D10C4C03682468A34208D04B6869
:1021F0000468646823444B6003681B680B6005E057
:10220000054B1B680B6001E003680B60884200D03F
:10221000016010BD940000209C0000202DE9F041D9
:1022200004460D4616461F464FF0000865602461BF
:10223000B5420CD8F01BA169884202D34FF00108C7
:1022400011E0211D0948006800F0AEFB0BE0BE4222
:1022500004D2BD4202D34FF0010804E0211D04481E
:10226000006800F0A1FB4046BDE8F081840000203A
:102270008000002070B5054600F0BCFBA86B08B9D3
:10228000012400E0002400F0DFFB204670BD70B5A3
:10229000054600F0AFFBA86BE96B884201D1012431
:1022A00000E0002400F0D0FB204670BDF8B50546E4
:1022B0000F461A480068C068C468201D00F050FB33
:1022C00094F8280000F00400E8B1A06941192B46F9
:1022D0003A462046FFF7A2FFD8B1002003462A461F
:1022E00001460090204601F011FC064656B900BF99
:1022F000502080F31188BFF34F8FBFF36F8F00BF63
:1023000000BFFEE705E094F8280020F0010084F803
:1023100028002046216A8847F8BD00008000002080
:1023200070B586B08BE003980028FBDB059C6069E4
:1023300008B9012000E0002010B9201D00F010FBBA
:1023400002A800F0DDF8054603980A2875D2DFE8F8
:1023500000F009050739416306083A4200BF00BF93
:1023600000BF00BF94F8280040F0010084F8280066
:102370000498A269811803462A462046FFF74EFFBB
:10238000F8B12046216A884794F8280000F004003C
:10239000B8B1002000900498A169421800231946A2
:1023A000204601F0B3FB064656B900BF502080F32B
:1023B0001188BFF34F8FBFF36F8F00BF00BFFEE7E1
:1023C00000BF3BE000BF94F8280020F0010084F833
:1023D000280033E000BF94F8280040F0010084F8A2
:1023E00028000498A061A06908B1012000E0002045
:1023F00050B900BF502080F31188BFF34F8FBFF357
:102400006F8F00BF00BFFEE7A06941192B462A4627
:102410002046FFF703FF11E094F8280000F00200C7
:1024200018B9204600F02EFB05E094F8280020F0B3
:10243000010084F8280001E0FFE700BF00BF002290
:1024400003A90448006801F01FF800287FF46BAF6F
:1024500006B070BD88000020F8B505460C4600F0B7
:102460002FFD684600F04CF80646009820BB44B9A2
:10247000B54206D801F09CFA31462846FFF716FF10
:102480001CE03CB10E480068006808B9012000E07B
:1024900000200446A91B22460A48006800F0AAFB57
:1024A00001F086FA50B94FF0805007490860BFF339
:1024B0004F8FBFF36F8F01E001F07AFAF8BD000093
:1024C000840000208800002004ED00E00A4909682B
:1024D000096809B9012100E0002121B14FF0FF3165
:1024E000064A116006E004490968C968C868034AD9
:1024F000416811607047000048000020740000200F
:1025000070B5044601F0FAF80546074800688542B0
:1025100004D200F00BF80120206001E000202060D0
:1025200001480560284670BD900000202DE9F84361
:1025300034E025480068C068056823480068C06822
:10254000C468201D00F00CFA2046216A884794F8E0
:10255000280000F0040008B3A0694619AE4207D96C
:1025600066602461211D1848006800F01DFA15E01E
:10257000002003462A4601460090204601F0C6FA94
:10258000074657B900BF502080F31188BFF34F8F23
:10259000BFF36F8F00BF00BFFEE700BF0A480068AF
:1025A000006808B9012000E000200028C1D00648DA
:1025B000D0F8008005480068034908600348C0F867
:1025C0000080BDE8F8830000800000208400002027
:1025D0000E480068401C08B9012000E0002050B9F6
:1025E00000BF502080F31188BFF34F8FBFF36F8F70
:1025F00000BF00BFFEE700BF502080F31188BFF38B
:102600004F8FBFF36F8F00BF00BFFEE7B400002005
:1026100008B500BF6846FFF7BFFC04462046009996
:10262000FFF71AFFFFF77CFEF4E770B5044600F0F1
:10263000E1F994F9455010E0606A08B9012000E022
:10264000002038B904F1240001F066F918B100F057
:10265000ABFB00E003E0681E45B2002DECDC00BFE0
:10266000FF2084F8450000F0EFF900F0C3F994F979
:10267000445010E0206908B9012000E0002048B96A
:1026800004F1100001F048F908B100F08DFB681E5C
:1026900045B200E001E0002DECDC00BFFF2084F833
:1026A000440000F0D1F970BD2DE9F04104464FF02F
:1026B000000800F005FC4948006808B9FFF780FCF5
:1026C000474800682040002870D1D4B1083404F095
:1026D0000700B0B104F00700C0F10800044404F0A2
:1026E000070008B9012000E0002050B900BF5020C9
:1026F00080F31188BFF34F8FBFF36F8F00BF00BF10
:10270000FEE7002C52D03748006884424ED8364E3F
:102710003046056801E02E462D686868A04202D266
:1027200028680028F7D12D48006885423ED03068DF
:1027300000F10808286830606868001B102819D963
:102740002F1907F0070008B9012000E0002050B958
:1027500000BF502080F31188BFF34F8FBFF36F8FFE
:1027600000BF00BFFEE76868001B78606C603846F9
:10277000FFF720FD1B4968680968081A19490860B5
:102780000846006819490968884203D2154800685C
:1027900016490860124968680968084368600020A3
:1027A000286013480068401C1149086001F000F9D6
:1027B00008F0070008B9012000E0002050B900BF70
:1027C000502080F31188BFF34F8FBFF36F8F00BF8E
:1027D00000BFFEE74046BDE8F08100009C000020FD
:1027E000B0000020A000002094000020A4000020E1
:1027F000A8000020001F4FF080730360001F21F02D
:1028000001030360001F054B036014380260001FC2
:102810006FF002030360203870470000D1250008E4
:102820001CB5044600F0E6F81248022100233222CB
:10283000CDE9001010A1134800F020FF124802213A
:1028400000233222CDE9001010A1134800F016FF3A
:102850001248042100238022CDE9001010A1134862
:1028600000F00CFF1248006800F018FA00F0ECF8D5
:102870001CBD0000040000206C6564305F7461734F
:102880006B0000004D1C0008080000206C656431DE
:102890005F7461736B0000006D1C00080C00002069
:1028A000666C6F61745F7461736B0000DD1B000800
:1028B0000000002010B588B0044601210846FEF74C
:1028C000DFFE01211020FEF7EBFE0722092122483E
:1028D000FEF744FE07220A211F48FEF73FFE4FF491
:1028E000C060069002208DF81C008DF81D000020AD
:1028F0008DF81E0001208DF81F0006A91648FEF76E
:10290000E5FD02940020ADF80C00ADF80E00ADF826
:102910001000ADF814000C20ADF8120002A90F4809
:10292000FFF7A8F801210D48FFF748F8012240F20F
:1029300025510A48FFF778F825208DF80400032078
:102940008DF805008DF8060001208DF8070001A81C
:10295000FEF750FE08B010BD00000240001001401C
:1029600001460A69D1E901309860D1E90103586054
:102970005068884201D18868506000200861106862
:10298000401E10601068704700F1080141604FF070
:10299000FF31816000F10801C16001610021016027
:1029A000704700210161704710B502460B685C1C3E
:1029B0000CB9106907E002F1080000E040684468C3
:1029C00024689C42FAD944684C604C68A1608860D5
:1029D00041600A611468641C146010BD42684A605A
:1029E00093688B60936859609160086103685B1C11
:1029F0000360704700BF502080F31188BFF34F8FF2
:102A0000BFF36F8F00BF0E480068401C0C49086080
:102A100008460068012812D10A480068C0B208B907
:102A2000012000E0002050B900BF502080F3118841
:102A3000BFF34F8FBFF36F8F00BF00BFFEE770473C
:102A4000B400002004ED00E00D48006850B900BF5C
:102A5000502080F31188BFF34F8FBFF36F8F00BFFB
:102A600000BFFEE706480068401E054908600846AA
:102A7000006820B9002080F3118800BF00BF7047B4
:102A8000B400002070B506463546002E44D0083DFF
:102A90002C46224960680968084008B1012000E01E
:102AA000002050B900BF502080F31188BFF34F8F32
:102AB000BFF36F8F00BF00BFFEE7206808B9012099
:102AC00000E0002050B900BF502080F31188BFF310
:102AD0004F8FBFF36F8F00BF00BFFEE70F496068E5
:102AE00009680840C0B12068B0B90C49606809683D
:102AF0008843606000F0E4F90949606809680844A7
:102B0000074908602046FFF755FB06480068401C4F
:102B10000449086000F04CFF70BD0000B0000020C8
:102B2000A0000020AC00002000204FF0E021086150
:102B30008861064800684FF47A71B0FBF1F0401EDE
:102B40004FF0E02148610720086170471400002021
:102B500070B5FDF7D1FB0446102C16D304F1E0202C
:102B600090F8F05315480078854201DB012000E021
:102B7000002050B900BF502080F31188BFF34F8F61
:102B8000BFF36F8F00BF00BFFEE70D48006800F481
:102B9000E0600C490968884201D8012000E000206B
:102BA00050B900BF502080F31188BFF34F8FBFF39F
:102BB0006F8F00BF00BFFEE770BD0000B8000020AF
:102BC0000CED00E0BC000020024600200BE0084BAA
:102BD00053F8303033B9064B43F8301003EBC003E1
:102BE0005A6002E0401C0828F1D300BF7047000083
:102BF000880100202DE9F04105460E4617462C4677
:102C0000FFF7F8FE94F94400401C10B9002084F846
:102C1000440094F94500401C10B9002084F8450098
:102C2000FFF712FFA06B28B93A46314604F12400A1
:102C300000F0DCF82046FFF7F8FCBDE8F08100006A
:102C400070B504460025D4B11248006808B90120C7
:102C500000E0002050B900BF502080F31188BFF37E
:102C60004F8FBFF36F8F00BF00BFFEE700F028F962
:102C700000212046FFF734F800F09AFE05463DB9E2
:102C80004FF0805004490860BFF34F8FBFF36F8F40
:102C900070BD00007C00002004ED00E070B505462A
:102CA000FFF7A8FE15B93048006800E02846044642
:102CB000201DFFF755FE78B9E06A00EB80002B4934
:102CC00051F8200040B994F82C1001208840284980
:102CD0000968814326480160A06A18B104F1180010
:102CE000FFF73EFE23480068401C224908601E484A
:102CF0000068844209D1211D1F48FFF76FFE1F485D
:102D00000068401C1D49086009E01D480068401E1D
:102D10001B4908602046FFF735F9FFF7D7FBFFF79F
:102D200093FE18480068E8B10F480068844219D142
:102D30001548006808B9012000E0002050B900BF24
:102D4000502080F31188BFF34F8FBFF36F8F00BF08
:102D500000BFFEE74FF080500C490860BFF34F8F73
:102D6000BFF36F8F70BD000044000020C801002039
:102D70005C0000207000002084040020500000202F
:102D800054000020600000207C00002004ED00E0E2
:102D90000349096801600349096841607047000000
:102DA0006C00002058000020012001490860704795
:102DB0006800002070B504460D4654B900BF50208D
:102DC00080F31188BFF34F8FBFF36F8F00BF00BF39
:102DD000FEE70548016818312046FFF7E5FD0121AF
:102DE0002846FEF77DFF70BD4400002070B5054603
:102DF0000E46144655B900BF502080F31188BFF32A
:102E00004F8FBFF36F8F00BF00BFFEE7064801681A
:102E100018312846FFF7E2FD0CB14FF0FF3621468E
:102E20003046FEF75DFF70BD440000201CB51D4814
:102E300000210B468222CDE900101BA11C4800F0A6
:102E40001DFC0446012C02D100F034FE0446012C86
:102E500015D100BF502080F31188BFF34F8FBFF30F
:102E60006F8F00BF4FF0FF301249086001201249F8
:102E7000086000201149086000F070F810E0601C44
:102E800008B1012000E0002050B900BF502080F3BD
:102E90001188BFF34F8FBFF36F8F00BF00BFFEE7F6
:102EA0001CBD00007800002049444C450000000093
:102EB0003D20000874000020600000205800002021
:102EC00002480068401C0149086070477C000020EF
:102ED0001D48006818B101201C49086032E000203C
:102EE0001A4908601A480068B0FA80F0C0F11F0162
:102EF00001EB8100174A52F8200008B1012000E0E0
:102F0000002050B900BF502080F31188BFF34F8FCD
:102F1000BFF36F8F00BF00BFFEE701EB81020D4BD7
:102F200003EB820042685268426000F10802436885
:102F3000934202D14268526842604268D268064BAE
:102F40001A6000BF704700007C000020680000206D
:102F50005C000020C8010020440000201CB552483D
:102F600000685249884201D0012000E0002050B999
:102F700000BF502080F31188BFF34F8FBFF36F8FD6
:102F800000BF00BFFEE7484800684849491E884224
:102F900001D0012000E0002050B900BF502080F394
:102FA0001188BFF34F8FBFF36F8F00BF00BFFEE7E5
:102FB0003F49084600780190FF200A4610700846F5
:102FC000007800909DF8000000F0F0009DF80020CF
:102FD000904201D1012000E0002050B900BF5020F4
:102FE00080F31188BFF34F8FBFF36F8F00BF00BF17
:102FF000FEE79DF8000000F050002E4A10700720F8
:103000002D4A106009E02C480068401E2A4A1060D2
:103010009DF800004006000E00909DF8000000F0B2
:1030200080008028EFD024480068C0F10700042801
:1030300001D1012000E0002050B900BF502080F3F2
:103040001188BFF34F8FBFF36F8F00BF00BFFEE744
:10305000194800680002184A10601046008800F401
:10306000E0601060124A019810700F48203000682C
:1030700040F470000C49203108600846006840F0B8
:1030800070400860FFF750FD00200C490860FDF714
:10309000FBF80B48006840F0404009490860FDF724
:1030A000DFF800201CBD000000ED00E071C20F4100
:1030B00000E400E0B8000020BC000020B4000020C4
:1030C00034EF00E010B500BF502080F31188BFF34B
:1030D0004F8FBFF36F8F00BF00F016FB18B14FF09A
:1030E00080500449086000BF002080F3118800BFB1
:1030F00010BD000004ED00E02DE9F84305460E4642
:1031000017460DB1012000E0002050B900BF50204B
:1031100080F31188BFF34F8FBFF36F8F00BF00BFE5
:10312000FEE705FB06F808F15000FFF7BDFA04467C
:103130004CB1A14609F150093B464A463146284662
:103140000094FEF78FFF2046BDE8F88370B5054672
:103150000E462C4654B900BF502080F31188BFF3AF
:103160004F8FBFF36F8F00BF00BFFEE7FFF742FC3A
:10317000D4E90F12206801FB0200A0600020A063C8
:1031800020686060E06B401E226C216800FB021129
:10319000E160FF2084F8440084F845009EB920696E
:1031A00008B9012000E00020A8B904F1100000F0E7
:1031B000B3FB80B14FF0805009490860BFF34F8FD7
:1031C000BFF36F8F07E004F11000FFF7DDFB04F1A0
:1031D0002400FFF7D9FBFFF737FC012070BD00008A
:1031E00004ED00E02DE9FF4383B0064688461D4606
:1031F0004FF00009344654B900BF502080F31188C5
:10320000BFF34F8FBFF36F8F00BF00BFFEE7B8F172
:10321000000F01D1206C08B9012000E0002050B956
:1032200000BF502080F31188BFF34F8FBFF36F8F23
:1032300000BF00BFFEE7022D02D1E06B012801D1E3
:10324000012000E0002050B900BF502080F3118819
:10325000BFF34F8FBFF36F8F00BF00BFFEE700F0DB
:103260003DFA08B9059808B9012000E0002050B9DE
:1032700000BF502080F31188BFF34F8FBFF36F8FD3
:1032800000BF00BFFEE700BFFFF7B4FBA06BE16B20
:10329000884201D3022D28D12A4641462046FEF716
:1032A00032FE0746606A08B9012000E0002068B9D4
:1032B00004F1240000F030FB88B14FF08050324917
:1032C0000860BFF34F8FBFF36F8F08E03FB14FF03F
:1032D00080502D490860BFF34F8FBFF36F8FFFF70A
:1032E000B3FB012007B0BDE8F083059818B9FFF7DC
:1032F000ABFB0020F6E7B9F1000F04D101A8FFF7FE
:1033000047FD4FF00109FFF79FFBFFF7D9FDFFF7DE
:1033100071FB94F94400401C10B9002084F844006B
:1033200094F94500401C10B9002084F84500FFF7CF
:103330008BFB05A901A800F05BF9F0B92046FEF768
:10334000A6FFA0B104F110000599FFF733FD204658
:10335000FFF76BF900F02CFB002895D14FF080505F
:1033600009490860BFF34F8FBFF36F8F8CE720468A
:10337000FFF75BF900F01CFB86E72046FFF755F9E5
:1033800000F016FB0020ADE704ED00E02DE9F84F5A
:1033900007468A4690461E463C4654B900BF502018
:1033A00080F31188BFF34F8FBFF36F8F00BF00BF53
:1033B000FEE7BAF1000F01D1206C08B9012000E04E
:1033C000002050B900BF502080F31188BFF34F8F09
:1033D000BFF36F8F00BF00BFFEE7022E02D1E06B8C
:1033E000012801D1012000E0002050B900BF502089
:1033F00080F31188BFF34F8FBFF36F8F00BF00BF03
:10340000FEE7FFF7A5FB00BF5021EFF3118081F32A
:103410001188BFF34F8FBFF36F8F00BF0546A06BBE
:10342000E16B884201D3022E25D194F945B0A06BFF
:103430000090324651462046FEF765FD0BF1010033
:1034400088B9606A08B9012000E0002050B904F191
:10345000240000F061FA28B1B8F1000F02D0012079
:10346000C8F8000004E00BF1010040B284F8450008
:103470004FF0010901E04FF0000900BF85F311880A
:1034800000BF4846BDE8F88F2DE9F74183B00546F7
:103490000E464FF000082C4654B900BF502080F370
:1034A0001188BFF34F8FBFF36F8F00BF00BFFEE7E0
:1034B0000EB9206C08B9012000E0002050B900BF0F
:1034C000502080F31188BFF34F8FBFF36F8F00BF81
:1034D00000BFFEE700F002F908B9059808B901201D
:1034E00000E0002050B900BF502080F31188BFF3E6
:1034F0004F8FBFF36F8F00BF00BFFEE700BFFFF726
:1035000079FAA76BF7B131462046FEF7E7FC781E43
:10351000A063206908B9012000E0002060B904F12F
:10352000100000F0F9F938B14FF080502F490860D1
:10353000BFF34F8FBFF36F8FFFF786FA012006B0FE
:10354000BDE8F081059818B9FFF77EFA0020F6E78C
:10355000B8F1000F04D101A8FFF71AFC4FF00108E1
:10356000FFF772FAFFF7ACFCFFF744FA94F9440056
:10357000401C10B9002084F8440094F94500401C18
:1035800010B9002084F84500FFF75EFA05A901A8EC
:1035900000F02EF8F0B92046FEF76CFEA0B104F161
:1035A00024000599FFF706FC2046FFF73EF800F0DF
:1035B000FFF90028A3D14FF080500C490860BFF3F9
:1035C0004F8FBFF36F8F9AE72046FFF72EF800F07A
:1035D000EFF994E72046FFF728F800F0E9F92046D4
:1035E000FEF748FE00288AD00020A8E704ED00E09E
:1035F00070B505460C4655B900BF502080F31188C0
:10360000BFF34F8FBFF36F8F00BF00BFFEE754B90A
:1036100000BF502080F31188BFF34F8FBFF36F8F2F
:1036200000BF00BFFEE7FFF7E5F9124802686868CF
:10363000131A2068401C08B9002617E00E492868B4
:103640000968884204D06868904201D801260DE0DC
:103650002068984207D92068C01A20602846FFF7E2
:1036600097FB002602E0002020600126FFF7ECF91E
:10367000304670BD580000206C0000202DE9FF4F3F
:1036800085B0804689461746DDE912ABB800FFF7E2
:103690000BF8064656B15820FFF706F804460CB161
:1036A000266304E03046FFF7EDF900E000247CB12A
:1036B0000020CDE900ABCDE902403A4649464046FC
:1036C000089BFEF7E4FC2046FEF756FB012501E0CF
:1036D0004FF0FF35284609B0BDE8F08F054909686D
:1036E00009B9012005E00449096809B9022000E090
:1036F00000207047600000207C000020014908681D
:1037000070470000580000202DE9F0414FF00008FC
:103710004448006800287CD143480068451C424862
:10372000056015BB41480068006808B9012000E049
:10373000002050B900BF502080F31188BFF34F8F95
:10374000BFF36F8F00BF00BFFEE7384807683848F7
:103750000068364908603648076036480068401CF3
:1037600034490860FEF7B2FE00BF33480068854266
:103770003CD300BF2D480068006808B9012000E074
:10378000002020B14FF0FF302B4908602DE0274882
:103790000068C068C4686668B54202D22648066000
:1037A00023E0201DFFF7DCF8A06A18B104F118002F
:1037B000FFF7D6F894F82C10012088401F490968BB
:1037C00008431E490860E16A01EB81011C4A02EBD3
:1037D0008100211DFFF702F91A49E06A0968C96AE8
:1037E0008842C7D34FF00108C4E700BF15480068FE
:1037F000C06A00EB8000124951F82000012801D96D
:103800004FF001081048006808B14FF0010805E0CA
:10381000FFE70E480068401C0C4908604046BDE8C0
:10382000F08100007C0000205800002048000020AB
:103830004C0000206C000020740000205C00002080
:10384000C80100204400002068000020640000201F
:1038500070B505462C460026002D55D02B48006833
:10386000844201D1012000E0002050B900BF502067
:1038700080F31188BFF34F8FBFF36F8F00BF00BF7E
:10388000FEE7E06C50B900BF502080F31188BFF311
:103890004F8FBFF36F8F00BF00BFFEE7E06C401E8D
:1038A000E064A16CE06A88422ED0E06C60BB201D11
:1038B000FFF756F878B9E06A00EB8000144951F838
:1038C000200040B994F82C10012088401149096863
:1038D000814310480160A06CE062E06AC0F1200002
:1038E000A06194F82C10012088400A490968084317
:1038F00008490860E16A01EB8101054A02EB810099
:10390000211DFFF76BF80126304670BD44000020F2
:10391000C80100205C00002070B50646F068C4684D
:1039200054B900BF502080F31188BFF34F8FBFF30D
:103930006F8F00BF00BFFEE704F11800FFF710F81B
:1039400015480068A8B9201DFFF70AF894F82C1054
:103950000120884011490968084310490860E16A5C
:1039600001EB81010E4A02EB8100211DFFF736F8C1
:1039700004E004F118010B48FFF730F80A49E06A47
:103980000968C96A884204D90125012007490860ED
:1039900000E00025284670BD7C0000205C0000206F
:1039A000C8010020700400204400002068000020AE
:1039B00070B5002400263648006850B900BF50207A
:1039C00080F31188BFF34F8FBFF36F8F00BF00BF2D
:1039D000FEE7FFF70FF82E480068401E2C490860EC
:1039E0000846006800284FD12A48006800284BD0BC
:1039F00024E02948C068C46804F11800FEF7B0FF4D
:103A0000201DFEF7ADFF94F82C10012088402349BB
:103A10000968084321490860E16A01EB8101204AF5
:103A200002EB8100211DFEF7D9FF1E49E06A0968FB
:103A3000C96A884202D301201B4908601648006801
:103A400008B9012000E000200028D2D00CB1FEF718
:103A50003DFD1648056865B100BFFFF755FE10B182
:103A60000120114908606D1E002DF6D100200F497C
:103A700008600D48006838B1012630070C4908601D
:103A8000BFF34F8FBFF36F8FFEF7DEFF304670BD81
:103A90007C00002054000020700400205C00002006
:103AA000C8010020440000206800002064000020BD
:103AB00004ED00E01CB50024FEF7BAF90E480068DA
:103AC00058B10E48022100234FF48272CDE9001054
:103AD0000BA10D48FFF7D2FD044654B900BF50209A
:103AE00080F31188BFF34F8FBFF36F8F00BF00BF0C
:103AF000FEE720461CBD0000880000208C0000204E
:103B0000546D722053766300112600082DE9FE43A0
:103B100004460D4616461F46DDF828804FF0000982
:103B200054B900BF502080F31188BFF34F8FBFF30B
:103B30006F8F00BF00BFFEE71448006810B3009508
:103B400001960294062D15DAFFF7C8FD022808D168
:103B50000023424669460D480068FFF743FB814653
:103B600010E000231A46694608480068FFF73AFB50
:103B7000814607E000233A46694604480068FFF79B
:103B800005FC81464846BDE8FE8300008800002011
:103B900010B500290AD00878002807D005487844D5
:103BA000FDF796F8002801D0002010BD02487844A7
:103BB00010BD0000CE010000C60100000808A0F5FD
:103BC00000114FEA3101704743004FEAD30C4FEA2E
:103BD0003C0C43401FBF40070CF1605113F0FE4FF7
:103BE00070471CF0006F03D100200CF000417047BB
:103BF0000CF0004343EA507010B540EACC0000F0EE
:103C00000EF800BF000000924FEA0001FFF7D6BF98
:103C10004FF000414FF00000A1F5002170470EF178
:103C2000020E2EF0030E5EF8044B244204D44FEA39
:103C30004102B2F17F4F11D84FEA4003B3F17F4FF9
:103C40000CD80ED14FEAD07CB2F17F4F0CEB4C0C6C
:103C50000CF1020C08BF4CEBD17C04E04FF0080CD7
:103C600001E04FEAD17C0CEB4C0324FA03F404F09E
:103C70000704B4F1040C06D20EEB840CBDE810402E
:103C80004CF0010C6047DFE80CF0070802024FF02F
:103C90000040A0F5800010BD0846420018BFD2F1D8
:103CA000807288BF00F0004010BD4FF04070E1EE20
:103CB000100A7047FCF701BD02400000000000A0A0
:103CC0000000000005400000000000C800000000E7
:103CD0000C4000000000409C000000001940000063
:103CE0000020BCBE0000000034400000BFC91B8E95
:103CF00000000004B5400000504BCFD06607E2CF73
:103D0000010000006C4100003E8251AADFEEA734A2
:103D100001000000D9420000DCB5A0E23A301F9754
:103D2000FFFFFFFFB4450000FD25A0C8E9A3C14F78
:103D3000FFFFFFFFFF3F00000000008000000000C9
:103D4000FF3F00000000008000000000883D0008E8
:103D500000000020C0000000C4010008483E000828
:103D6000C000002078360100E00100081C000000BF
:103D700043000000F8FFFFFF0C0000000E000000F1
:103D80000F0000002E0000000000000000000000F6
:103D9000000000000000000000000000007A030A9C
:103DA00000000000000000000102030406070809EB
:103DB0000000000000000000000000000000010200
:103DC00003040102030406070809000000000000C4
:103DD00000000000000000000000000000000000E3
:103DE00000000000000000000000000000000000D3
:103DF00000000000000000000000000000000000C3
:103E000000000000000000000000000000000000B2
:103E100000000000000000000000000000000000A2
:103E20000000000000000000000000000000000092
:103E3000000000000000000000000000AAAAAAAADA
:083E400000000000000000007A
:040000050800018965
:00000001FF
